S013000061746D65676131323834702E7372656363
S1130000A6C000000C94B0180C94D9180C94D717FF
S1130010BDC00000BBC00000B9C00000B7C00000F4
S1130020B5C00000B3C00000B1C00000AFC0000004
S1130030ADC000000C946C1E0C94881EA7C0000078
S1130040A5C00000A3C00000A1C000000C94F41CD3
S11300509DC000009BC0000099C0000097C0000034
S113006095C0000093C00000A4C300008FC000002E
S11300708DC000008BC0000089C0000087C0000054
S11300800C94D71E0C94081F81C0000060046C04FB
S11300906C046C046C046C046C046C04F9036C0450
S11300A06C046C046C046C046C046C04F9036C0440
S11300B06C046C046C046C046C046C0403046C0425
S11300C06C046C046C046C046C046C0460046C04B8
S11300D06C046C046C046C046C046C0403046C0405
S11300E06C046C046C046C046C046C0460046C0498
S11300F06C046C046C046C046C046C046C046C047C
S11301006C046C046C046C046C046C043A046C049D
S11301106C046C046C046C046C046C0460046C0467
S11301206C046C046C046C046C046C042E046C0489
S11301306C046C046C046C046C046C044C04031BAD
S1130140EB1AEE1AF11AF41AF71AFA1AFD1A112414
S11301501FBECFEFD0E4DEBFCDBF15E0A0E0B1E01D
S1130160E4E0FDE400E00BBF02C007900D92A03173
S1130170B107D9F729E0A0E1B5E001C01D92A1398A
S1130180B207E1F70E9460180C94802639CFE09101
S11301900208F09103088FE08083E0910C08F0914D
S11301A00D0882E08083E0910C08F0910D088081B5
S11301B08E7F8083E0910C08F0910D08808182602D
S11301C0808383E08A95F1F70000E0910C08F091B8
S11301D00D0880818460808393E09A95F1F7000094
S11301E0E0910608F09107088081807FE0910C0877
S11301F0F0910D0890819B7F9083E0910C08F09121
S11302000D0890819460908393E09A95F1F7000033
S1130210E0910608F09107089081E0910C08F091B4
S11302200D0890819B7F908388237CF2E0910208E3
S1130230F09103088FEF808380E00895E0910C082B
S1130240F0910D088083E0910C08F0910D088081F5
S11302508460808383E08A95F1F70000E0910C08C4
S1130260F0910D0880818B7F808380E00895CF9387
S1130270DF93C82FD62F807F862BE0DF20E1C29F3B
S1130280C00111248D2BDADF82DF80E0DF91CF9172
S1130290089560E081E0EBDF87E893E10197F1F7EF
S11302A000C0000080E00895EF92FF920F931F9327
S11302B0CF93DF938C01EB01E12CF12C0BC061E0B7
S11302C0D6DF0F5F1F4F8FEFE81AF80AE8E2EE1649
S11302D0F10431F0F80180818111F1CFF12C03C0D8
S11302E06894FF24F1F860E080ECC1DF00E010E0E6
S11302F008C061E0BCDF21960F5F1F4F0832110573
S113030021F088818111F5CF03C06894FF24F1F8AE
S11303108F2DDF91CF911F910F91FF90EF90089552
S11303200F931F93CF93DF9380910B08811128C003
S11303302091050880910A08281720F500910808E3
S11303401091090830E04091040850E0249FE00136
S1130350259FD00D349FD00D1124C00FD11F2F5FC6
S11303603F4F429FC001439F900D529F900D112417
S1130370080F191F8EDFB801CE0196DF80E003C09D
S113038080E001C083E0DF91CF911F910F91089528
S113039080910B08882321F010920B08C1DF08C05C
S11303A080910508882319F0815080930508B8DFEF
S11303B080E0089580910B08882321F010920B08A7
S11303C0AFDF0FC020910508422F50E080910A084A
S11303D090E00297481759071CF42F5F20930508F3
S11303E09FDF80E00895AC0190E080E006C0FA0150
S11303F0E90FF11D2081820F9F5F9617C0F30895C6
S1130400CF93DF93EC018EEB91E09F938F930E9447
S1130410741F8AE192E00E944C1F0F900F9040E0FD
S11304201BC090911105242F30E060E1969FC0011C
S11304301124FC01E25FF74FE20FF31F5083509148
S11304400B018454974FFC01E20FF31F50838C91EE
S1130450850F80930B014F5FDE01A40FB11D5C91EA
S11304605111DFCF80910B018F5F80930B01DF91DE
S1130470CF91089590E00C944C260895FF920F9329
S11304801F93CF93DF93F82E8B01D42FC0E00BC0C2
S11304908C2F90E0F801E80FF91F60818F0D911DFA
S11304A00E944C26CF5FCD1798F3DF91CF911F9117
S11304B00F91FF900895415050E020E1829FC001C8
S11304C01124FC01E454F74FE40FF51F825F974FAA
S11304D0DC01A40FB51F4C918081D0CF089590E02A
S11304E00C9444260895CF93DF93D0910A018D2F65
S11304F0F6DFC82F8F3F29F48DED91E00E944C1F49
S11305003FC080911005282F30E0F901EE54F74FD9
S1130510D083F901E45AF64FC0838F5F80931005AE
S11305208CE092E00E944C1F80910A018C0F8F5F37
S113053080930A01D4DFC82F1DC080911005282F95
S113054030E0F901EE54F74F90910A019083F901DC
S1130550E45AF64FC0838F5F809310058CE092E0DD
S11305600E944C1F80910A018C0F8F5F80930A01B7
S1130570B6DFC82FCF3F09F78EEF91E00E944C1FE2
S1130580DF91CF910895CF9380E0A9DFC82F81E058
S1130590A6DFCA3721F48B3721F080E003C080E066
S11305A001C081E0CF910895615020E1829FC00194
S11305B01124FC01E454F74FE60FF11D808190E013
S11305C00C9444260895DF92EF92FF920F931F93A9
S11305D0CF93DF93EC01D62E0FEF040F10E018C079
S11305E0812F90E07E01E80EF91E22953295307F2E
S11305F03227207F32272454374FF901E40FF51FA7
S11306002081820F911D0E944426F70180831F5F81
S11306102D2D30E0402F50E0F901E295F295F07F66
S1130620FE27E07FFE27E25FF74FE40FF51F80818E
S11306301817B0F2DF91CF911F910F91FF90EF90B7
S1130640DF900895CF93DF93C0E0D0E005C06FEF53
S1130650CE010E944C262196C11580E1D807B8F33B
S11306608DE192E09F938F930E94741F0F900F90DF
S1130670DF91CF91089587DF81110DC0E3DF6AE731
S113068070E080E0F7DE6BE770E081E0F3DE88E0A5
S113069080936000089527CF0895CF93DF93C2E03D
S11306A0D0E005C06FEFCE010E944C262196C11503
S11306B080E1D807B8F38DE192E09F938F930E9475
S11306C0741F0F900F90DF91CF9108951F93CF93D4
S11306D0DF93EC01162F87DE909111052091100510
S11306E0921700F5E92FF0E0E45AF64F20818213C7
S11306F010C09F5F9093110590910C01890F8F5F3B
S113070080930C01CE017CDE8AE392E00E944C1FB0
S113071030C089E692E00E944C1FBFDF88E08093DE
S1130720600027C020910C01820F8F5F80930C0121
S11307309F5F90931105CE0163DE86EB92E00E94E9
S11307404C1F612FCE014FDEC82F8DEC92E09F939A
S11307508F930E94741F8C2F0E94581F80910A014E
S11307600E94581F6C2F70E080910A0183DE0F9065
S11307700F9080911105DF91CF911F910895809181
S1130780680980936B098091130581608093130538
S113079080E007C0E3ECF9E03197F1F700C0000016
S11307A08F5F909181098917A8F385EA8093BC0033
S11307B008951F920F920FB60F9211240BB60F9249
S11307C02F933F934F935F936F937F938F939F9355
S11307D0AF93BF93EF93FF93E091B9008E2F90E016
S11307E08935910508F078C0FC01EA5BFF4F0C9451
S11307F0732110928209809113058093BB0085E8D0
S11308008093BC0074C09091820980916B09981701
S113081080F4E091820981E08E0F80938209F0E0F8
S1130820E459F64F80818093BB0085E88093BC0037
S11308305EC080916809823028F084E98093BC000E
S11308409EDF55C084E98093BC0010921205E091AC
S11308506909F0916A0980E0099549C0E09182092B
S113086081E08E0F80938209F0E08091BB00E4590F
S1130870F64F80832091820930E080916B0990E0EB
S113088001972817390724F485EC8093BC002FC006
S113089085E88093BC002BC0E0918209F0E0809150
S11308A0BB00E459F64F808384E98093BC00109226
S11308B01205E0916909F0916A0980E0099517C071
S11308C084E98093BC0010921205E0916909F091CB
S11308D06A0981E009950BC084E98093BC001092F9
S11308E01205E0916909F0916A0981E00995FF9187
S11308F0EF91BF91AF919F918F917F916F915F9194
S11309004F913F912F910F900BBE0F900FBE0F9000
S11309101F9018958FEF81B982B9089592B141E083
S113092050E060E070E004C0440F551F661F771F5D
S11309308A95D2F7492742B90895982F96958695B6
S11309408695892B982F96959695892B982F929515
S11309509F70892B90E00196959587950895EF9265
S1130960FF920F931F93CF93DF93082FE6DFD82FC7
S1130970023080F1F12CEE24E394C0E81BE1D111A4
S113098011C08E2D28C08C2F6D2F0E941E21089F10
S1130990902D11241927E89E802D1124F826812FEB
S11309A0CCDFC82FCD1778F7C11111C08F2D13C01C
S11309B08D2F6C2F0E941E21189F902D1124092722
S11309C0F89E802D1124E826802FB7DFD82FDC175E
S11309D078F7D5CF802FDF91CF911F910F91FF90A2
S11309E0EF900895282F30E0F901EE0FFF1FB901B1
S11309F0660F771F660F771FA901440F551F440F19
S1130A00551F440F551F22953295307F3227207F82
S1130A103227E8276E2746272427982F991F9927DE
S1130A20991F2927982F9295969596959370292723
S1130A30982F929596959770292782958F70822783
S1130A4093E689270895FC01DB018C919081892725
S1130A50808311968C9111979181892781831296B5
S1130A608C91129792818927828313968C91139784
S1130A7093818927838314968C9114979481892771
S1130A80848315968C91159795818927858316966D
S1130A908C91169796818927868317968C91179740
S1130AA097818927878318968C9118979085892731
S1130AB0808719968C9119979185892781871A9631
S1130AC08C911A979285892782871B968C911B9704
S1130AD09385892783871C968C911C9794858927F5
S1130AE084871D968C911D979585892785871E96E9
S1130AF08C911E979685892786871F968C9197855A
S1130B00892787870895CF93DF93FC01EB01DA01EE
S1130B1098818C9189278083998111968C91119762
S1130B20892781839A8112968C91129789278283CF
S1130B309B8113968C911397892783839C811496A8
S1130B408C911497892784839D8115968C91159790
S1130B50892785839E8116968C911697892786838B
S1130B609F8117968C911797892787839885189664
S1130B708C91189789278087998519968C91199754
S1130B80892781879A851A968C911A978927828753
S1130B909B851B968C911B97892783879C851C9624
S1130BA08C911C97892784879D851D968C911D9710
S1130BB0892785879E851E968C911E97892786870F
S1130BC09F851F968C9189278787DF91CF91089500
S1130BD03ACF08951F93CF93DF93EC018881BFDE52
S1130BE001DF88838C81BBDEFDDE8C838885B7DEE4
S1130BF0F9DE88878C85B3DEF5DE8C8719818D81DB
S1130C00AEDEF0DE89838985AADEECDE8D838D85F8
S1130C10A6DEE8DE8987812FA2DEE4DE8D871A81D5
S1130C208A859DDEDFDE8A83812F99DEDBDE8A877B
S1130C301E818E8594DED6DE8E83812F90DED2DEF9
S1130C408E871F858B858BDECDDE8F878F8187DE38
S1130C50C9DE8B878B8183DEC5DE8F83812F7FDEA8
S1130C60C1DE8B83DF91CF911F9108959F92AF9244
S1130C70BF92CF92DF92EF92FF920F931F93CF9385
S1130C80DF93CDB7DEB760970FB6F894DEBF0FBE23
S1130C90CDBF8C0180E1F801DE01119601900D9227
S1130CA08A95E1F789815BDE9DDEC82E90E0880F8E
S1130CB0991FBC2CBB1CBB24BB1C0F2EFBE1FF2EBD
S1130CC0F02DBF9CB02C1124B8268E8148DE8ADE1C
S1130CD0D82E90E0880F991FAD2CAA1CAA24AA1C18
S1130CE0AF9CA02C1124A8269A2C9D249B248B8590
S1130CF036DE78DEE82E9826888931DE73DE982683
S1130D00F80190822E2D30E0220F331F9E2D991F63
S1130D109927991F9F9D902D11249227AC242E2D45
S1130D202927A226A826A182282F30E0220F331FCC
S1130D30382F331F3327331F3F9D302D1124232792
S1130D403C2D3D259327822789278283CB24DC24CD
S1130D50ED242E2523838D8102DE44DEC82E90E00F
S1130D60880F991FBC2CBB1CBB24BB1CBF9CB02C84
S1130D701124B8268A85F3DD35DED82E90E0880F5D
S1130D80991FAD2CAA1CAA24AA1CAF9CA02C112428
S1130D90A8269A2C9D249B248F85E1DD23DEE82E52
S1130DA098268C81DCDD1EDE9826F80194822E2D97
S1130DB030E0220F331F9E2D991F9927991F9F9D65
S1130DC0902D11249227AC242E2D2927A226A82663
S1130DD0A582282F30E0220F331F382F331F3327EB
S1130DE0331F3F9D302D112423273C2D3D25932770
S1130DF0822789278683CB24DC24ED242E25278390
S1130E008985ADDDEFDDC82E90E0880F991FBC2CDD
S1130E10BB1CBB24BB1CBF9CB02C1124B8268E85E4
S1130E209EDDE0DDD82E90E0880F991FAD2CAA1C22
S1130E30AA24AA1CAF9CA02C1124A8269A2C9D2479
S1130E409B248B818CDDCEDDE82E9826888587DD7A
S1130E50C9DD9826F80190862E2D30E0220F331F2D
S1130E609E2D991F9927991F9F9D902D112492279C
S1130E70AC242E2D2927A226A826A186282F30E0CF
S1130E80220F331F382F331F3327331F3F9D302D3D
S1130E90112423273C2D3D259327822789278287E8
S1130EA0CB24DC24ED242E2523878D8558DD9ADD83
S1130EB0C82E90E0880F991FBC2CBB1CBB24BB1C04
S1130EC0BF9CB02C1124B8268A8149DD8BDDD82E35
S1130ED090E0880F991FAD2CAA1CAA24AA1CAF9CD1
S1130EE0A02C1124A8269A2C9D249B248F8137DDC5
S1130EF079DDE82E98268C8532DD74DD9826F8019C
S1130F0094862E2D30E0220F331F9E2D991F992792
S1130F10991F9F9D902D11249227AC242E2D2927B3
S1130F20A226A826A586282F30E0220F331F382FAB
S1130F30331F3327331F3F9DF02C11242F253C2DC5
S1130F403D259327822789278687CB24DC24ED241B
S1130F502E25278760960FB6F894DEBF0FBECDBF4F
S1130F60DF91CF911F910F91FF90EF90DF90CF9081
S1130F70BF90AF909F9008957F928F929F92AF926F
S1130F80BF92CF92DF92EF92FF920F931F93CF9372
S1130F90DF93683151F0603241F0603131F0EA01A1
S1130FA0C051DF4F18828FEF9EC0EA01E62EBC01CC
S1130FB04E2D50E0CE010E941C238CE18E0DB82EE4
S1130FC0BB0CBB0CFE01E051FF4F8B2D82958F7043
S1130FD081508083FE2CCC24C39481C00F2D10E05B
S1130FE0F8013497EC0FFD1F8080F8013397EC0F64
S1130FF0FD1F9080F8013297EC0FFD1FA080F801CF
S11310003197EC0FFD1FD0808F2D6E2D0E941E2175
S113101091111FC0892DA3DCE5DC7C2C78268A2D58
S11310209EDCE0DC982E8D2D9ADCDCDCA82E882D4D
S113103096DCD8DCD82E8C2D90E0880F991FCC1C20
S1131040CC24CC1C9BE1C99EC02C1124C826872C1F
S113105015C088E18E1590F4903181F4882D7FDCE1
S1131060C1DC882E892D7BDCBDDC982E8A2D77DCB3
S1131070B9DCA82E8D2D73DCB5DCD82E2F2D2E19BE
S113108030E0FE01E20FF31F8081FE01E00FF11F4B
S113109088258083F8013196D9011196AC0FBD1FC4
S11310A08C91EC0FFD1F89258083F8013296D901BC
S11310B01296AC0FBD1F8C91EC0FFD1F8A25808307
S11310C00D5F1F4F2D5F3F4FFE01E20FF31F808125
S11310D0FE01E00FF11FD826D08284E0F80EFB1445
S11310E008F47CCF80E0DF91CF911F910F91FF90A6
S11310F0EF90DF90CF90BF90AF909F908F907F90B4
S11311000895AF92BF92CF92DF92EF92FF921F9316
S1131110CF93DF93CDB7DEB760970FB6F894DEBFF9
S11311200FBECDBF9C01FA01E051FF4F908199237E
S113113061F17A015B01B9016A01CE010196E3DC38
S113114011E00DC0CE01019691DDB60180E1189F3A
S1131150600D711D1124CE0101963ADD1F5FF70168
S1131160E051FF4F8081181768F3CE01019632DDFC
S1131170A70180E1189F400D511D1124BE016F5F2E
S11311807F4FC501C0DC80E001C08FEF60960FB6D1
S1131190F894DEBF0FBECDBFDF91CF911F91FF90BA
S11311A0EF90DF90CF90BF90AF900895FC01EF5087
S11311B0FF4F20E1DF011D922A95E9F7B0961182D5
S11311C0108220EFFC0111922A95E9F70895AC01F1
S11311D0CB0160E1D1CE0895AF92BF92CF92DF925E
S11311E0EF92FF920F931F93CF93DF93CDB7DEB7A8
S11311F060970FB6F894DEBF0FBECDBF8C017B01A4
S11312006A01FC01EF5EFE4F80819181009709F431
S113121075C020E130E0281B390B5A01241735072B
S113122008F45901A501B70198012F5F3E4F820FC1
S1131230931F0E941C23F801EF5EFE4F8081918171
S11312408A0D9B1D91838083409708F467C0CA145C
S1131250DB0409F463C020E030E00FC0C801820F52
S1131260931FFC01EF50FF4F4081DC01AF5FBE4F85
S11312708C91842780832F5F3F4F2031310574F395
S1131280A801C8018F509F4FBC013BDFEA0CFB1C37
S1131290CA18DB0833C0F801E80FF91FEF50FF4FFD
S11312A03081D701A80FB91F2C91232720830196E1
S11312B002C080E090E0803191056CF380E1580138
S11312C091EFA90EB11CF501DE01119601900D926A
S11312D08A95E1F7A801BE016F5F7F4FCB0111DF53
S11312E080E1FE013196D50101900D928A95E1F7D6
S11312F080E1E80EF11C90E1C91AD10881E1C81619
S1131300D104B8F6A601B701C8018F5F9E4F0E94B1
S11313101C23F801EF5EFE4FD182C08260960FB6A7
S1131320F894DEBF0FBECDBFDF91CF911F910F9117
S1131330FF90EF90DF90CF90BF90AF900895EF9221
S1131340FF920F931F93CF93DF93CDB7DEB7A09790
S11313500FB6F894DEBF0FBECDBF7C018B01CE016A
S1131360019620E1DC011D922A95E9F7AB01BC014D
S1131370C8DE89818823E4F020E030E03DC0A1E0AC
S1131380B0E0AC0FBD1FA20FB31F8C9190E0880F8B
S1131390991F2F5F3F4FE1E0F0E0EC0FFD1FE20FDC
S11313A0F31F9081991F9927991F892B8C9302C051
S11313B020E030E02F30310514F38889982F990FFD
S11313C087E88927888B1EC0A1E0B0E0AC0FBD1F61
S11313D0A20FB31F8C9190E0880F991F2F5F3F4F8E
S11313E0E1E0F0E0EC0FFD1FE20FF31F9081991F85
S11313F09927991F892B8C932F3031052CF38889D9
S1131400880F888BF801EF5EFE4F808191814097B1
S1131410C1F411C0F801E80FF91FEF5FFE4F3081EE
S1131420A1E0B0E0AC0FBD1FA80FB91F2C9123277A
S11314302083019602C080E090E08031910554F34E
S11314407DC089818823E4F020E030E03DC0A1E044
S1131450B0E0AC0FBD1FA20FB31F8C9190E0880FBA
S1131460991F2F5F3F4FE1E0F0E0EC0FFD1FE20F0B
S1131470F31F9081991F9927991F892B8C9302C080
S113148020E030E02F30310514F38889982F990F2C
S113149087E88927888B1EC0A1E0B0E0AC0FBD1F90
S11314A0A20FB31F8C9190E0880F991F2F5F3F4FBD
S11314B0E1E0F0E0EC0FFD1FE20FF31F9081991FB4
S11314C09927991F892B8C932F3031052CF3888908
S11314D0880F888BF801EF5EFE4F0190F081E02DBC
S11314E0E00FF11FEF5FFE4F80E8808306C0800F9E
S11314F0911FFC01EF5FFE4F1082F801EF5EFE4F7B
S1131500808191810196918380838031910578F364
S113151080E090E010C0F801E80FF91FEF5FFE4F84
S11315203081A1E0B0E0AC0FBD1FA80FB91F2C9112
S1131530232720830196803191056CF320E030E06D
S11315400FC0C801820F931FFC01EF50FF4F408171
S1131550DC01AF5FBE4F8C91842780832F5F3F4FA8
S11315602031310574F3F801EF50FF4F80E1DE01C3
S1131570519601900D928A95E1F7A801B701CE0129
S11315804196BFDDFE01319680E1DF011D928A950F
S1131590E9F7A0960FB6F894DEBF0FBECDBFDF917A
S11315A0CF911F910F91FF90EF900895CF93DF9308
S11315B0EC01DB01FA01240F351F04C089919D91D0
S11315C098279193E217F307C8F3DF91CF91089519
S11315D0EF92FF920F931F93CF93DF93CDB7DEB7B4
S11315E0C953D1400FB6F894DEBF0FBECDBFFC0186
S11315F07B018A0193E1DE01119601900D929A9587
S1131600E1F7CE014496D2DDB701CE014496DFDD89
S113161043E150E0BE016F5F7F4FCE014496DCDDB5
S1131620BE016C5E7F4FCE01895D9E4F88DEC95D31
S1131630DE4F88819981C752D140F801918380831C
S1131640C75DDE4F88819981C952D14093838283DB
S1131650C75CDE4F0FB6F894DEBF0FBECDBFDF917F
S1131660CF911F910F91FF90EF9008958F929F92C9
S1131670AF92BF92CF92DF92EF92FF920F931F939C
S1131680CF93DF93CDB7DEB7C351D1400FB6F894F3
S1131690DEBF0FBECDBF4B017A01ADB6BEB6022F81
S11316A010E0A801415051092DB73EB7201B310B62
S11316B00FB6F8943EBF0FBE2DBFEDB7FEB73196FF
S11316C06F0120E2EDB7FEB72183BC01C60101968C
S11316D00E941C23CE01019669DDB401CE0101965E
S11316E076DDA801B601CE01019676DD2DB73EB7B1
S11316F0201B310B0FB6F8943EBF0FBE2DBF0DB7A4
S11317001EB70F5F1F4FBE016F5F7F4FC80117DE0B
S1131710F80180819181F70191838083F8018281AE
S11317209381F701938382830FB6F894BEBE0FBEF4
S1131730ADBECD5EDE4F0FB6F894DEBF0FBECDBF9B
S1131740DF91CF911F910F91FF90EF90DF90CF9099
S1131750BF90AF909F908F9008954F925F926F9239
S11317607F928F929F92AF92BF92CF92DF92EF922D
S1131770FF920F931F93CF93DF93CDB7DEB7C3537D
S1131780D1400FB6F894DEBF0FBECDBF4C013B0174
S1131790F42E2901FE01319680E1DF011D928A9524
S11317A0E9F789E48983EE8220E010C0822F90E07B
S11317B0FC013696D801A80FB91F8C9141E050E086
S11317C04C0F5D1FE40FF51F80832F5F243070F3EF
S11317D0AE01455F5F4FC601B501F6D4F88ACE016C
S11317E04196E4DCB201CE014196F1DC40E150E0E7
S11317F0BE016F5F7F4FCE014196EEDC4F2D50E06E
S1131800B301CE014196E8DCBE016F5E7F4FCE018D
S11318108C5D9E4F94DDCC5DDE4F88819981C452EE
S1131820D140D40111969C938E93CA5DDE4F88817A
S11318309981C652D14013969C938E931297CD5C96
S1131840DE4F0FB6F894DEBF0FBECDBFDF91CF9150
S11318501F910F91FF90EF90DF90CF90BF90AF90CA
S11318609F908F907F906F905F904F9008952F92EC
S11318703F924F925F926F927F928F929F92AF921C
S1131880BF92CF92DF92EF92FF920F931F93CF9369
S1131890DF93CDB7DEB7C351D1400FB6F894DEBFA6
S11318A00FBECDBF4C013B01CE5EDE4F3983288392
S11318B0C251D140442309F46CC0842F8F70482E48
S11318C0512C42954F70242E312C4114510419F09F
S11318D04FEF241A340AFE01319680E1DF011D9294
S11318E08A95E9F781E08983EE8220E010C0822F97
S11318F090E0FC013696D801A80FB91F8C9141E005
S113190050E04C0F5D1FE40FF51F80832F5F2430E0
S113191070F3AE01455F5F4FC601B50155D4FF2496
S1131920F39430C0F88AAE014F5E5F4F60E1CE5E43
S1131930DE4F88819981C251D1401EDBAE014F5EDA
S11319405F4FBE016E5F7E4FCE010196DADB02155A
S1131950130534F04114510431F420E130E005C0A2
S113196020E130E002C0242D352DA401B301CE01C5
S11319708E5F9E4F1BDEF39450E1650E711C80E177
S1131980880E911C0F2D10E0201631065CF681E0C4
S113199001C080E0CD5EDE4F0FB6F894DEBF0FBE0F
S11319A0CDBFDF91CF911F910F91FF90EF90DF900A
S11319B0CF90BF90AF909F908F907F906F905F90EB
S11319C04F903F902F900895CF92DF92EF92FF9225
S11319D01F93CF93DF93CDB7DEB7C15FD1090FB6A5
S11319E0F894DEBF0FBECDBF2223D9F0122F9A0187
S11319F06B017C01AE014F5F5F4F60E1C901BCDA4E
S1131A00AE014F5F5F4FB701C6017BDB113148F078
S1131A10B701605F7F4FAE014F5F5F4FC6014096D5
S1131A2070DBCF50DF4F0FB6F894DEBF0FBECDBFD3
S1131A30DF91CF911F91FF90EF90DF90CF900895A9
S1131A40CF92DF92EF92FF920F931F93CF93DF9386
S1131A50CDB7DEB7C150D1400FB6F894DEBF0FBE8C
S1131A60CDBFFC01C9019E012F5F3F4F690120E1F9
S1131A70D6011D922A95E9F721E02983208131813D
S1131A803B832A8322812C83FB01208131813E8385
S1131A902D8322812F83DA0111962C9111972887A7
S1131AA02C912987AE014F5E5F4F60E165DAAE018C
S1131AB04F5E5F4FB801C60124DB82E08983AE012B
S1131AC04F5E5F4FB701C6011CDBCF5FDE4F0FB621
S1131AD0F894DEBF0FBECDBFDF91CF911F910F9160
S1131AE0FF90EF90DF90CF900895FC011082118257
S1131AF012821382148215821682178208950F931C
S1131B001F93CF93DF93CDB7DEB785E590E00E94B6
S1131B1095218C01EADF8DE4FE013796D8011896F1
S1131B2001900D928A95E1F78EE384D690E0A0E0CF
S1131B30B0E0F80180839183A283B383C801DF916D
S1131B40CF911F910F910895835F0895CF93DF93F1
S1131B50009751F0EC0189859A85009711F00E9455
S1131B602D22CE010E942D22DF91CF9108950F9353
S1131B701F93CF93DF936115710549F18B0180E1C8
S1131B8090E00E949521EC01892B21F180E1FE0176
S1131B9011928A95E9F786E190E00E9495219A874F
S1131BA08987009729F4CE01D1DF80E090E014C04A
S1131BB026E1F801DC0101900D922A95E1F786E116
S1131BC08B871982188218868C2F9D2F05C080E080
S1131BD090E002C080E090E0DF91CF911F910F91DF
S1131BE00895CF93DF9300D0CDB7DEB79A8389836E
S1131BF086E190E00E949521BC01892B09F446C03E
S1131C0090E010C0292F30E0DB01A20FB31F4981FF
S1131C105A81E7E0F0E0E21BF30BE40FF51F848D3B
S1131C208C939F5F983070F390E013C0292F30E0BD
S1131C30D9011896A60FB71F49815A81E7E0F0E051
S1131C40E21BF30BE40FF51FEC5BFF4F80818C93D9
S1131C509F5F983058F380E013C0282F30E0D901FB
S1131C605096A60FB71F49815A81E1E0F0E0E21BCC
S1131C70F30BE40FF51FE45BFF4F90819C938F5FA0
S1131C80823058F3CE01019672DF02C080E090E00A
S1131C900F900F90DF91CF910895AF92BF92CF92A2
S1131CA0DF92EF92FF920F931F93CF93DF938C01F8
S1131CB06B01F42E8EED841710F40E940B23672B16
S1131CC009F452C0442309F452C080E190E00E9418
S1131CD09521EC01892B09F44DC080E1FE0111929C
S1131CE08A95E9F7AF2CB12CC5010E9495219A87FA
S1131CF08987009729F4CE0129DF80E090E03FC076
S1131D00A501B6010E941C23FB86198282E0888308
S1131D1081E08887C80108969B838A83F801C08084
S1131D20D180E280F380CC82DD82EE82FF82FFEFFD
S1131D30CF1ADF0AEF0AFF0AF801C082D182E282D9
S1131D40F382C701B6012AE030E040E050E00E948F
S1131D505121613071058105910579F4B6018EE355
S1131D6017D68C2F9D2F0BC080E090E008C080E038
S1131D7090E005C080E090E002C08C2F9D2FDF91A1
S1131D80CF911F910F91FF90EF90DF90CF90BF9074
S1131D90AF9008955F926F927F928F929F92AF92CD
S1131DA0BF92CF92DF92EF92FF920F931F93CF9344
S1131DB0DF933C01EB018885882309F46EC0988188
S1131DC0923009F065C08B85811105C069857A85DB
S1131DD0672B09F462C0122F4A01B6DEF82E1817D9
S1131DE008F458C0412F50E060E070E0C4010E9444
S1131DF02523888120E2829FC00111249981892BA7
S1131E00F401808320E00EC0822F90E0FC01319623
S1131E10E80DF91D4A815B81DA01A80FB91F8C9185
S1131E2080832F5F243080F3F40115826C817D81DF
S1131E308E819F81A4014A5F5F4FC6D18885F401DA
S1131E4080875B8469857A85AC80BD80CE80DF80A5
S1131E500A811B81E12C93012C5D3F4F452DC40168
S1131E60099605DD8823C1F093012C5C3F4F852D35
S1131E7090E00996AC80BD80CE80DF800A811B8112
S1131E8049E0450DB401880D991D67DC8F2D05C00F
S1131E9080E003C080E001C080E0DF91CF911F911A
S1131EA00F91FF90EF90DF90CF90BF90AF909F90F5
S1131EB08F907F906F905F900895EF92FF920F93B1
S1131EC01F93CF93DF938C01EB018B85811104C0A9
S1131ED029853A85232BB1F187E1FA0111928A957C
S1131EE0E9F7FA01108290E00DC0292F30E0F901E2
S1131EF03196E40FF51FA985BA85A20FB31F2C9163
S1131F0020839F5F923188F37A01E80184E090E0B6
S1131F100E9495218C010097A1F0BE01645F7F4F60
S1131F20AC01C70155DBF80180819181F701948BE5
S1131F30838BF80182819381F701968B858B87E1EE
S1131F4001C080E0DF91CF911F910F91FF90EF903E
S1131F5008952F923F924F925F926F927F928F9249
S1131F609F92AF92BF92CF92DF92EF92FF920F9324
S1131F701F93CF93DF93CDB7DEB728970FB6F894AE
S1131F80DEBF0FBECDBF9E838D833B01F42E81E067
S1131F90DBDDF81608F4C9C080E190E00E949521C9
S1131FA04C01892B09F4C4C080E1D4011D928A95A7
S1131FB0E9F7F3019081892F829586958770D40182
S1131FC08C9311969C93833039F0813029F0C401AD
S1131FD0BDDD80E090E0B1C0C3010196C7D0F4013B
S1131FE0738362830D811E81085F1F4F06171707D5
S1131FF069F082ED92E09F938F930E94741FC40155
S1132000A5DD0F900F9080E090E097C0D301189663
S11320108C91F4018087AD81BE8114962D903D9002
S11320204D905C901797C3010696D4D09C01221959
S113203033092130304428F0C40188DD80E090E089
S11320407CC0B201A101442755271A012B01280E97
S1132050391E411C511CF401248235824682578268
S1132060EF2DF0E03497E60DF71D80819181D401C6
S11320701D969C938E931C9782819381F4013C96C8
S1132080F887EF839383828362015101EE24E39402
S11320902D813E812C5C3F4F4CEF4F0DB301CE019F
S11320A001965BDB44E050E06F817885CE010196B8
S11320B00E940F23892B29F0C40148DD80E090E0C1
S11320C03CC0D201C1010196A11DB11DED81FE816B
S11320D084839583A683B783F3EFFF0ED4011B9605
S11320E0FC928F2D90E00E949521F40192878187C4
S11320F0009729F4C4012ADD80E090E01EC02D8100
S11321003E812C5D3F4F02811381B301675F7F4F96
S113211062015101EE24E3944F2DA9DB81110BC020
S1132120C40114DD80E090E008C080E090E005C0C8
S113213080E090E002C0882D992D28960FB6F8947F
S1132140DEBF0FBECDBFDF91CF911F910F91FF90E6
S1132150EF90DF90CF90BF90AF909F908F907F9043
S11321606F905F904F903F902F9008950F931F931F
S1132170FC0120816181862F90E0A0E0B0E0BA2FBD
S1132180A92F982F8827822B028110E020E030E0CD
S1132190980111270027AC01BD01402B512B622B64
S11321A0732B838190E0A0E0B0E0B82FAA27992791
S11321B088278A019B01082B192B2A2B3B2BC90149
S11321C0B8011F910F910895FA016083718382838E
S11321D093830895FC012081818190E0982F8827C2
S11321E0822B08950E94D41E1092160580911C051E
S11321F090911D05009711F00E942D228CE195E02D
S1132200A5D680931B0510921E05E0911F05F09141
S11322102005309709F009951092200510921F05AA
S11322200895EF92FF920F931F93CF93DF93CDB74F
S1132230DEB7E8970FB6F894DEBF0FBECDBF0E949D
S1132240D41EFE01319680E2DF011D928A95E9F7E2
S113225085E089838CE195E079D680931B05109203
S11322601E0588EE92E00E944C1F10E01BC084E023
S113227090E00E9495217C01E0911C05F0911D05E0
S1132280E10FF11D808140E1B70190E00E942C2311
S1132290C7010E944C1F80E20E94451FC7010E9493
S11322A02D221F5F80911B05181708F38AE192E025
S11322B00E944C1FBFE3EDE0F3E0B150E040F0407A
S11322C0E1F700C0000020911B0530E021503109E6
S11322D060911C0570911D056F5F7F4F41E151E0D6
S11322E0CE01019671DB2DE130E0AE014F5D5F4F11
S11322F061E171E0CE010196B9D9E0911B05F0E0EE
S1132300359741E050E04C0F5D1FE40FF51F9081BD
S113231089A198138AC1E0911B05F0E03497E40F7A
S1132320F51F90818AA1981380C1E0911B05F0E00C
S11323303397E40FF51F90818BA1981376C1E09138
S11323401B05F0E03297E40FF51F90818CA19813E0
S11323506CC180911B058132C1F080911B058131D4
S113236009F021C114C0282F30E0E1E0F0E0EC0FC7
S1132370FD1FE20FF31F9081E6E3F0E0EC0FFD1F79
S1132380E20FF31F90838F5F03C080E001C080E001
S1132390833048F380E013C0282F30E0F9013396EE
S11323A0A1E0B0E0AC0FBD1FEA0FFB1F9081E3E397
S11323B0F0E0EC0FFD1FE20FF31F90838F5F83307B
S11323C058F320E015C0822F90E0E9E0F0E0E81B2C
S11323D0F90B41E050E04C0F5D1FE40FF51F308115
S11323E0E5E2F0E0EC0FFD1FE80FF91F30832F5FEB
S11323F0243048F345E0BE016A5C7F4F809121059B
S11324000E945B0244E0BE016D5C7F4F8091210518
S11324100E945B0243E0BE016B5D7F4F809121050A
S11324200E945B020F2EF9E2EF2EF1E0FF2EF02D59
S113243009E311E021E131E041E551E0BE016D5CC9
S11324407F4FCE01C696FCDA81EF92E00E944C1FCA
S113245010E019C084E090E00E9495217C01E12FF6
S1132460F0E0E35FFE4F84A540E1B70190E00E94F5
S11324702C23C7010E944C1F80E20E94451FC70104
S11324800E942D221F5F103128F38AE192E00E94FE
S11324904C1F8BEF92E00E944C1F10E019C084E0A7
S11324A090E00E9495217C01E12FF0E0E35FFE4F74
S11324B0848D40E1B70190E00E942C23C7010E9463
S11324C04C1F80E20E94451FC7010E942D221F5FFE
S11324D0103128F38AE192E00E944C1F85E093E0DA
S11324E00E944C1F10E01BC084E090E00E949521E4
S11324F07C01E5E2F0E0EC0FFD1FE10FF11D8081AE
S113250040E1B70190E00E942C23C7010E944C1FB8
S113251080E20E94451FC7010E942D221F5F1430D4
S113252018F38AE192E00E944C1F5FE784E89EE181
S1132530515080409040E1F700C0000041E069E361
S113254071E0809121050E945B0242E069E271E042
S1132550809121050E945B026B8570E046E08091CA
S113256021050E945B028B85282F2F709CE0921B13
S113257090935B01807790E09595879595958795E5
S1132580959587959595879590915C01890F809392
S11325905C016C8570E047E0809121050E945B023C
S11325A08C8580935E0180911B05813209F514C0EE
S11325B0822F90E0FC013C96A1E0B0E0AC0FBD1F7F
S11325C0EA0FFB1F3081E5E2F0E0EC0FFD1FE80F9E
S11325D0F91F30832F5F01C020E02F3048F34AE019
S11325E0BE016B5D7F4F809121050E945B021DC07F
S11325F0BE016B5D7F4F8EE0FB0111928A95E9F776
S113260088E18DA38FE48EA384E88FA398EE98A726
S113261096E599A78AA798EB9BA79EE59CA78DA70B
S11326204AE0809121050E945B02E8960FB6F89477
S1132630DEBF0FBECDBFDF91CF911F910F91FF90F1
S1132640EF90089510921E052AE333E146E069E411
S113265073E185E00C94A41E089510921E05409128
S11326605D0180915E0128E533E161EA73E10C9438
S1132670A41E089582E080931E0569E97FE48FE437
S11326809EE403D480915B0121D481E191E150C4A3
S1132690089582E080931E056EE978EF8EE49EE44F
S11326A0F4D380915C0112D481E191E141C4089595
S11326B09091160580915A019817C1F082E0809399
S11326C01E0569E97FE48FE49EE4DFD369E97FE4D2
S11326D08FE49EE4DAD380915B01F8D382EF90E13A
S11326E027D482E193E00E944C1F0BC060915A01F1
S11326F070E048E0809121050E945B0288E08093AD
S11327006000809116058F5F8093160590915A01A1
S1132710809116051F929F931F928F9381E293E0FD
S11327209F938F9389E293E09F938F930E94741FEA
S11327308DB79EB708960FB6F8949EBF0FBE8DBF97
S113274008959091160580915A019817B9F082E086
S113275080931E05609117057091180580911905E5
S113276090911A0592D380915C01B0D382EF90E1ED
S1132770DFD383E393E00C944C1F089560915A01D6
S113278070E048E0809121050E945B0288E080931C
S11327906000089590911B0581E0911101C080E0D3
S11327A00895CF92DF92EF92FF920F931F93CF93EE
S11327B08C017B01EFDF882391F140911B0560912F
S11327C01C0570911D05C801C4DB8C0180911C059A
S11327D090911D050E942D2210921D0510921C053A
S11327E010921B0501151105E1F0F801C385CC2EEB
S11327F0D12CC6010E949521F70191838083009713
S113280021F4C801A3D980E00DC0F8016185728567
S1132810A6010E941C23C80199D98C2F03C080E013
S113282001C080E0CF911F910F91FF90EF90DF9056
S1132830CF90089590E00C94442608958F929F922F
S1132840AF92BF92CF92DF92EF92FF921F93CF93FA
S1132850DF936C014B01F42E5901842F75D9182F85
S113286090E00E949521EC01892B09F484C04F2D3E
S1132870B401C60112DA7C01009729F4CE010E944A
S11328802D2280E079C0212FAE01BC01C60182DA7D
S1132890811107C0C7015AD9CE010E942D2280E0C0
S11328A06BC081E080931E05B0922005A0921F05A5
S11328B00E94FD2263E070E00E943E21982F990F50
S11328C0890F825C8093140580911405B3DF0F2E69
S11328D0F3E8CF2EF9E0DF2EF02DF601808380910E
S11328E014058F5FA7DFF6018183809114058E5F45
S11328F0A1DFF6018283138280E090E0A8ECB2E4C9
S11329008093170590931805A0931905B0931A05A1
S11329106091830970918409809185099091860959
S11329200E942D202091170530911805409119051A
S113293050911A050E94BB206093170570931805E7
S11329408093190590931A056091170570911805E5
S11329508091190590911A0598D287E0B7D24DE27B
S113296053E1612FCE01BBD2C701F0D8CE010E9442
S11329702D2281E001C080E0DF91CF911F91FF9073
S1132980EF90DF90CF90BF90AF909F908F9008957D
S113299090E00C944C260895EF92FF920F931F93AE
S11329A0CF93DF938C0187E190E00E949521EC01A5
S11329B0892B09F440C08DE4EDE0F1E0D8011896CC
S11329C001900D928A95E1F7C8010BD97C0100971B
S11329D029F4CE010E942D2280E02EC0AE01BC015C
S11329E0C8016BDA811107C0C701B0D8CE010E94BB
S11329F02D2280E021C081E080931E0510922005E5
S1132A0010921F056EE978EF8EE49EE43ED287E0D3
S1132A105DD242E253E167E1CE0161D2C70196D8AB
S1132A20CE010E942D22C80160D860E070E08EE3E0
S1132A30AFDF81E001C080E0DF91CF911F910F9162
S1132A40FF90EF90089545E06091210583E591E0C2
S1132A500E94E30244E06091210586E591E00E9432
S1132A60E30241E06091210589E391E00E94E302E1
S1132A7042E06091210589E291E00E94E30243E093
S1132A80609121058DE091E00E94E30249E06091AC
S1132A90210581E591E00E94E30266E08091210531
S1132AA00E94D40280935901282F2F709CE0921B1E
S1132AB090935B01807790E09595879595958795A0
S1132AC0959587959595879590915C01890F80934D
S1132AD05C0167E0809121050E94D40280935E012D
S1132AE080915E018F5F80935D0182E493E09F9308
S1132AF08F930E94741F83E591E00E94581F8CE419
S1132B0093E09F938F930E94741F0F900F900F90E8
S1132B100F900895EF92FF920F931F93CF93DF933B
S1132B201F92CDB7DEB7E82E6AE08FE591E00E94F0
S1132B306603809321052FE734E88EE1215030406D
S1132B408040E1F700C0000068E0809121050E9408
S1132B50D402F82E85E593E09F938F930E94741F0F
S1132B608F2D0E94581F8CE192E09F938F930E94B7
S1132B70741F61E0809121050E94D40280931505A1
S1132B80809115050F900F900F900F908F3F19F5BE
S1132B9080915A01F816F9F080915A01898348E02E
S1132BA0BE016F5F7F4F809121050E945B0281E629
S1132BB093E09F938F930E94741F9FE724E83EE164
S1132BC0915020403040E1F700C0000088E080933D
S1132BD060000F900F908AB18B7F8AB98BB18460AB
S1132BE08BB98FE39DE023E0815090402040E1F7D2
S1132BF000C000004A9B04C080915A01F81611F0ED
S1132C004A9905C088E793E00E944C1F05C01BDF6A
S1132C108EE893E00E944C1F49E06091210581E514
S1132C2091E00E94E3028DB79EB78D5491090FB6CF
S1132C30F8949EBF0FBE8DBFADB7BEB711968DE49D
S1132C40EDE0F1E001900D928A95E1F70E947F0D8D
S1132C508C010FB6F894DEBF0FBECDBF8E2DDED033
S1132C6082EA93E09F938F930E94741F80913901AD
S1132C700F900F90882371F080912901882351F0DF
S1132C8080910D01882331F04A9B04C080915A0140
S1132C90F8127AC048E060E070E0809121050E945B
S1132CA05B02109239018BEA93E00E944C1F3FE3D0
S1132CB08DE093E0315080409040E1F700C0000087
S1132CC0C8010E944C1F809152011F928F938BEB7D
S1132CD093E09F938F9388EC93E09F938F930E944C
S1132CE0741FC80159DE2AE230E58EEF90E02150CE
S1132CF0304080409040D9F70000809139010F9016
S1132D000F900F900F900F900F9081111FC0809122
S1132D1052018F3F21F08F5F8093520110C08F3F8B
S1132D2051F4809151018F3F31F0109252018F5F25
S1132D308093510104C0109252011092510149E054
S1132D4061E571E0809121050E945B028091390167
S1132D50882309F4B5CF8DE4EDE0F1E0D8011896AD
S1132D6001900D928A95E1F78EEC93E00E944C1F3E
S1132D702FE734E88EE1215030408040E1F700C075
S1132D80000088E080936000C8010F90DF91CF912C
S1132D901F910F91FF90EF900895EF92FF920F9380
S1132DA0E3E2F5E0806880836183E12CF12C00E0AC
S1132DB022E042E0BF0185E295E085D40F91FF90C7
S1132DC0EF900895EF92FF920F931F93CF93DF93A9
S1132DD0182F81E090E00E949521EC011F77109359
S1132DE02205E12CF12C01E022E041E062E275E0F1
S1132DF085E295E068D402E020E041E0BE0185E28E
S1132E0095E0D1D41881CE010E942D22812FDF912B
S1132E10CF911F910F91FF90EF900895CF93C82FFA
S1132E2087EA91E60197F1F700C00000E9E6F0E0D7
S1132E308081806380838CB384608CBB8DB3846019
S1132E408DBB24E040E060E080E071D54C2F6C2F16
S1132E508C2F53D560932505709326058093270501
S1132E60789460E081E099DF60E881E096DF6FEFBD
S1132E7089E093DF63E28CE090DF63E583E38DDF39
S1132E8064E389E38ADFCF910895CF92DF92EF92D2
S1132E90FF9227ED33E244E752E40E94991F0E9417
S1132EA001206B017C01B7018827992786E075DF33
S1132EB099278F2D7E2D6D2D87E06FDF6C2D88E097
S1132EC06CDFFF90EF90DF90CF90089520E1829F18
S1132ED0C0011124682F64608EE15FCF08950F93C1
S1132EE01F93CF93DF938C01D62F50932B054093E0
S1132EF02A0561E881E051DF6D2F82E24EDF60E850
S1132F008DE04BDFC0E007C0F801EC0FF11D6081DC
S1132F1080E043DFCF5FCD17B8F360E480E43DDFAA
S1132F2063E881E03ADFDF91CF911F910F9108951B
S1132F30909329058093280560E080E42EDF60E00B
S1132F408DE02BDF66E881E028CF0895EF92FF92B1
S1132F500F931F93CF93DF937C0183E133DFD82F4B
S1132F608823D9F090E00E949521F7019183808312
S1132F70892BA9F060E08DE010DFC0E00AC0F70102
S1132F80008111810C0F111D80E01CDFF80180838A
S1132F90CF5FCD17A0F38D2F03C080E001C080E088
S1132FA0DF91CF911F910F91FF90EF900895789446
S1132FB01F920F920FB60F9211240BB60F922F93FC
S1132FC03F934F935F936F937F938F939F93AF93AD
S1132FD0BF93EF93FF936FEF82E1DFDE80912A05C9
S1132FE090912B05892B51F0E0912A05F0912B0546
S1132FF0099510922B0510922A050FC0809128057F
S113300090912905892B49F0E0912805F091290533
S113301009951092290510922805FF91EF91BF910F
S1133020AF919F918F917F916F915F914F913F915C
S11330302F910F900BBE0F900FBE0F901F901895FD
S1133040EF92FF920F931F93CF93DF9300D0CDB7EE
S1133050DEB7BE016F5F7F4F80912C0590912D05E7
S1133060A0DB082F8BEE93E017D7002301F184E057
S113307090E00E9495217C0101110FC011C0E981EB
S1133080FA81E10FF11D808140E1B70190E00E94D7
S11330902C23C70101D71F5F01C010E0101778F37C
S11330A0C7010E942D2289819A810E942D220F90AE
S11330B00F90DF91CF911F910F91FF90EF900895A2
S11330C0F894A89584B7877F84BFE0E6F0E0808118
S11330D0886180831082CDD680E094E0DDD60E94A2
S11330E03B038AE094E0D8D60E948A0480916C0164
S11330F011DD90932D0580932C0584E10AC02FE304
S113310032E48FE0215030408040E1F700C00000FD
S1133110892F9FEF980F8111F2CF20E238E14CE024
S113312066E174E080912C0590912D0587DB83E2A4
S113313094E09F938F93D8D60F900F9084E1E9CFBA
S11331408DB38E7F8DBB8DB38D7F8DBBE9E6F0E0B3
S11331508081877F808380818D7F808380E0089554
S11331601F920F920FB60F9211240BB60F922F934A
S11331703F934F935F936F937F938F939F93AF93FB
S1133180BF93EF93FF930E94DA01DADFFF91EF918F
S1133190BF91AF919F918F917F916F915F914F916B
S11331A03F912F910F900BBE0F900FBE0F901F9069
S11331B018951F920F920FB60F9211240BB60F920F
S11331C02F933F934F935F936F937F938F939F932B
S11331D0AF93BF93EF93FF930E94C801B1DFFF91B8
S11331E0EF91BF91AF919F918F917F916F915F917B
S11331F04F913F912F910F900BBE0F900FBE0F90E8
S11332001F901895FC01E058FD4F108231961082F2
S1133210319621E0208340E050E013C0FA01EE0F24
S1133220FF1F9A01220F331F220F331F220F331F58
S1133230E20FF31FE80FF91F1282138214824F5F0B
S11332405F4F4034510554F380E090E005C0FB012A
S1133250E80FF91F1082019680349105C4F3FB0135
S1133260EF5BFF4F108231961082329710820895DF
S11332702F923F924F925F926F927F928F929F9282
S1133280AF92BF92CF92DF92EF920F931F93CF939F
S1133290DF93CDB7DEB7CA58D2400FB6F894DEBF7D
S11332A00FBECDBF213108F0FFC01601122F5A0105
S11332B04B016C01422E512CC2010E9495213C010C
S11332C09A8389831B821C830D83EE8298868F8266
S11332D03A862986009709F4E9C0A20160E070E00B
S11332E00E94252380E090E009C0F301E80FF91F54
S11332F0D501A80FB91F2C9120830196212F30E00E
S11333008217930794F3F601E058FD4F70813196CC
S11333108081182F1F7381508F73711709F495C022
S113332090E0FC01EE0FFF1F880F991F880F991F73
S1133330880F991FE80FF91FEC0DFD1D848180177C
S113334008F47FC082C0462F50E0FA01EE0FFF1F41
S1133350CA01880F991F880F991F880F991FE80FBA
S1133360F91FEC0DFD1D8481801708F067C01DC096
S1133370F901EE0FFF1FC901880F991F880F991FCC
S1133380880F991FE80FF91FA1E0B0E0AC0FBD1F33
S1133390AE0FBF1F1A96EC0DFD1D8AE001900D9231
S11333A08A95E1F72F5F3F4F02C020E030E02034E0
S11333B03105F4F2CA012BC09C012F5F3F4FD901A4
S11333C0AA0FBB1F220F331F220F331F220F331FDD
S11333D0A20FB31FAC0DBD1DFC01EE0FFF1F880F24
S11333E0991F880F991F880F991FE80FF91F81E013
S11333F090E08C0F9D1FE80FF91F3A968AE0019028
S11334000D928A95E1F76F5F862F8F7390E06113B9
S1133410D3CFDA01AA0FBB1F440F551F440F551F0A
S1133420440F551FA40FB51FAC0DBD1D8AE0FE014E
S1133430319601900D928A95E1F71DC06F5F6F730D
S113344001C0672F61137FCF16C0812F90E0DC018C
S1133450AA0FBB1F880F991F880F991F880F991FE8
S1133460A80FB91FAC0DBD1D8AE0FE013196019075
S11334700D928A95E1F71F5F1F73F601EF57FD4F19
S1133480108331961082711799F0812F90E0871B79
S113349091099C0122F422273327281B390B20345D
S11334A0310544F081E007C083E005C088E003C033
S11334B082E001C080E0C657DD4F0FB6F894DEBF4E
S11334C00FBECDBFDF91CF911F910F91EF90DF9091
S11334D0CF90BF90AF909F908F907F906F905F90B0
S11334E04F903F902F9008950AC04FE784E89EE1E3
S11334F0415080409040E1F700C00000C9019C01A8
S113350021503109892B89F70895FF920F931F9356
S1133510CF93DF93C82FD0E01F928F93FE01EE0F5D
S1133520FF1FEE0FFF1FEE0FFF1FEC0FFD1FE359F0
S1133530FE4F80858F9387818F9386E394E09F93DA
S11335408F9383E494E09F938F93CED48DB79EB7EB
S113355008960FB6F8949EBF0FBE8DBF00E010E032
S113356028C087E00E948E04EF2DF0E0EE0FFF1FCD
S1133570CE01880F991F880F991F880F991F8C0FF0
S11335809D1FE80FF91FE359FE4F81819281ACDF43
S113359087E00E948E0481E090E0A6DFF39401C0EE
S11335A0F12C92E09F15E8F684E090E09DDF0F5F38
S11335B01F4F02301105A4F3DF91CF911F910F919A
S11335C0FF900895482F50E048305105C8F4FA019F
S11335D0E156FF4F88C699DF81E0089596DF82E0C7
S11335E0089593DF83E0089590DF84E008958DDFEC
S11335F085E008958ADF86E0089587DF87E00895EF
S113360084DF88E0089580E00895CF93DF93EC0190
S1133610809137058823E1F390E014C0A9E7B5E071
S1133620EC9181E08E0F8C93EF73A881B9810D909A
S1133630BC91A02DA90FB11DF0E0E85CFA4F808188
S11336408C939F5F8A81981748F3DF91CF910895F7
S1133650FC019181973021F0953011F0963019F4E6
S113366084E0B0CF089580913505981741F18081A9
S11336709181A2818093340590933505A0933605FA
S113368044B1E4E3F5E081E090E09C01028002C0F3
S1133690220F331F0A94E2F7242B24B925B10180A9
S11336A002C0880F991F0A94E2F7822B85B90CB4E3
S11336B004FC07C08CB580618CBD80E0089580E077
S11336C0089580E00895CF92DF92EF92FF920F93D6
S11336D0CF93DF93E7016701E02E022F242FAB0184
S11336E0BC018BE795E0C4DD882311F06BDF53C088
S11336F080913705813009F04BC010923705D09383
S11337003105C09330058091FB0790E0FC01EE0F7A
S1133710FF1F880F991F880F991F880F991FE80FA3
S1133720F91FE558FA4F8681978192DF882311F0BB
S113373049DF31C025B181E090E00090350502C039
S1133740880F991F0A94E2F78095822385B98091A6
S1133750FB0790E0FC01EE0FFF1F880F991F880FF5
S1133760991F880F991FE80FF91FE558FA4F8081B8
S11337709181228131E0320F3283FC01E20FF11D8D
S113378080818EBD0DB406FE05C085E01BDF03C03D
S113379080E001C080E0DF91CF910F91FF90EF9026
S11337A0DF90CF9008956F927F928F929F92AF9205
S11337B0BF92CF92DF92EF92FF920F931F93CF931A
S11337C0DF9300D0CDB7DEB73C017A836983142F31
S11337D0D22E4701E0913205F0913305CE010196D6
S11337E0918380834283E42EF12CC7019ED55C0132
S11337F0009709F470C06D2D70E0A70126D764010D
S11338006894EE24E1F8212FA501B3018BE795E03C
S11338102FDD182F882329F0C5011FD6812FD2DE72
S11338205BC080913705813009F051C01092370593
S113383090923105809230058091FB0790E0FC0165
S1133840EE0FFF1F880F991F880F991F880F991F6C
S1133850E80FF91FE558FA4F86819781F9DE182F92
S1133860882329F0C501F9D5812FACDE35C025B1F7
S113387081E090E00090350502C0880F991F0A94FA
S1133880E2F78095822385B98091FB0790E0FC01E3
S1133890EE0FFF1F880F991F880F991F880F991F1C
S11338A0E80FF91FE558FA4F80819181228131E0B8
S11338B0320F3283FC01E20FF11D80818EBD0DB405
S11338C006FE05C0C501C9D585E07CDE05C0C5017D
S11338D0C4D580E001C088E00F900F90DF91CF91B4
S11338E01F910F91FF90EF90DF90CF90BF90AF901A
S11338F09F908F907F906F900895962F55B121E0FF
S113390030E0B901092E02C0660F771F0A94E2F76E
S1133910652B65B954B1042E02C0220F331F0A94DB
S1133920E2F7252B24B9682F792F842F08950F935C
S11339301F93CF93DF93182FD62FC42F022F80EA23
S113394084B984B18F7B84B944E064E084E0D5DF3A
S113395060933405709335058093360520E2129FF9
S1133960C00111246D2F70E0660F771F660F771F5B
S1133970660F771F4C2F50E0440F551F440F551FFF
S1133980806D682B462B4CBD8CEF800F843038F44F
S11339909CB5892B8CBD8DB581608DBD06C08CB561
S11339A0082B0CBD8DB58E7F8DBD81E080933705CE
S11339B068E375E08BE795E025DC83E090E0B5D41F
S11339C09093330580933205892B41F085E09BE188
S11339D090932F0580932E0580E001C088E0DF914D
S11339E0CF911F910F9108951F920F920FB60F92CE
S11339F011240BB60F922F933F934F935F936F93C2
S1133A007F938F939F93AF93BF93CF93DF93EF9362
S1133A10FF9330917A05232F2F7320938909809186
S1133A20FB0790E0FC01EE0FFF1F880F991F880F22
S1133A30991F880F991FE80FF91FE558FA4F8581E0
S1133A40823051F4E22FF0E08EB5E85CFA4F8083C7
S1133A503F5F30937A0503C08EB5809388098091C7
S1133A60FB079091FC07891709F410C190E0FC0151
S1133A70EE0FFF1F880F991F880F991F880F991F3A
S1133A80E80FF91FE558FA4F8681978190938C09C6
S1133A9080938B09FC013181209135053213D8DDE7
S1133AA08091FB0790E0FC01EE0FFF1F9C01220FA9
S1133AB0331F220F331F220F331FE20FF31FE5586A
S1133AC0FA4F32812381321749F125B181E090E028
S1133AD00090350502C0880F991F0A94E2F780957B
S1133AE0822385B98091FB0790E0FC01EE0FFF1F54
S1133AF0880F991F880F991F880F991FE80FF91FC6
S1133B00E558FA4F80819181228131E0320F32836E
S1133B10FC01E20FF11D80818EBDC9C021E020931C
S1133B203705FC01EE0FFF1F880F991F880F991F9F
S1133B30880F991FE80FF91FE558FA4F85818230E5
S1133B4079F480912E0590912F05892B49F0E0910D
S1133B502E05F0912F05809132059091330509953A
S1133B608091300590913105892B49F0E091300521
S1133B70F091310509951092310510923005CBEF83
S1133B80D7E0888190E0FC01EE0FFF1F880F991F9A
S1133B90880F991F880F991FE80FF91FE558FA4FEE
S1133BA0808191815AD49881892F8F73809387095A
S1133BB09F5F9F7390938A09988390E0FC01EE0FB6
S1133BC0FF1F880F991F880F991F880F991FE80FEF
S1133BD0F91FE558FA4F8581813061F025B181E004
S1133BE090E00090350502C0880F991F0A94E2F70F
S1133BF0822B85B98091FB079091FC07891709F402
S1133C003FC01092370590E0FC01EE0FFF1F880FB4
S1133C10991F880F991F880F991FE80FF91FE558FE
S1133C20FA4F80859185909331058093300525B1B5
S1133C3081E090E00090350502C0880F991F0A9436
S1133C40E2F78095822385B98091FB0790E0FC011F
S1133C50EE0FFF1F880F991F880F991F880F991F58
S1133C60E80FF91FE558FA4F80819181228131E0F4
S1133C70320F3283FC01E20FF11D80818EBD17C02B
S1133C8081E0809337058093FD0711C025B181E061
S1133C9090E00090350502C0880F991F0A94E2F75E
S1133CA0822B85B981E0809337058093FD07FF91CE
S1133CB0EF91DF91CF91BF91AF919F918F917F91C0
S1133CC06F915F914F913F912F910F900BBE0F9089
S1133CD00FBE0F901F9018951F920F920FB60F9260
S1133CE011240BB60F928F93EF93FF93E091660923
S1133CF0F0916709309711F081E08083FF91EF9193
S1133D008F910F900BBE0F900FBE0F901F901895C0
S1133D101F920F920FB60F9211240BB60F928F932E
S1133D20EF93FF93E091AE08F091AF08309711F054
S1133D3081E08083FF91EF918F910F900BBE0F90E4
S1133D400FBE0F901F90189510929000109295003E
S1133D5010929400E5E2F6E2582F5E9FC0015F9F47
S1133D60900D112490939900809398004E9FC00168
S1133D704F9F900D112490939B0080939A00E1E74C
S1133D80F0E080818260808380818460808370938E
S1133D900108609300083093FF072093FE0778948E
S1133DA085E08093910008951092910008951F92E8
S1133DB00F920FB60F9211240BB60F922F933F93CD
S1133DC04F935F936F937F938F939F93AF93BF931F
S1133DD0EF93FF93E0910008F0910108309729F0E8
S1133DE009951092010810920008FF91EF91BF917C
S1133DF0AF919F918F917F916F915F914F913F917F
S1133E002F910F900BBE0F900FBE0F901F9018951F
S1133E101F920F920FB60F9211240BB60F922F938D
S1133E203F934F935F936F937F938F939F93AF933E
S1133E30BF93EF93FF93E091FE07F091FF07309754
S1133E4029F009951092FF071092FE07FF91EF9158
S1133E50BF91AF919F918F917F916F915F914F919E
S1133E603F912F910F900BBE0F900FBE0F901F909C
S1133E7018951092C5008FE08093C40088E1809368
S1133E80C1008EE08093C20008959091C00095FF18
S1133E90FCCF8093C6000895CF93DF93EC0102C05A
S1133EA02196F3DF88818111FBCFDF91CF910895B3
S1133EB0CF93DF93CDB7DEB728970FB6F894DEBF64
S1133EC00FBECDBF4AE0BE016F5F7F4F90E0C4D309
S1133ED0CE010196E1DF28960FB6F894DEBF0FBE3F
S1133EE0CDBFDF91CF910895CF93DF93CDB7DEB7E8
S1133EF0DA950FB6F894DEBF0FBECDBF9E012B5FDF
S1133F003E4FF901419151919F0160E071E0CE0172
S1133F100196C5D3CE010196BFDF8AE192E0BCDFF2
S1133F20D3950FB6F894DEBF0FBECDBFDF91CF910E
S1133F3008950CD0E6C0DED040F0D5D030F021F4A6
S1133F405F3F19F0C7C0511110C1CAC0EBD098F33C
S1133F509923C9F35523B1F3951B550BBB27AA2706
S1133F6062177307840738F09F5F5F4F220F331F78
S1133F70441FAA1FA9F333D00E2E3AF0E0E830D044
S1133F8091505040E695001CCAF729D0FE2F27D047
S1133F90660F771F881FBB1F261737074807AB0715
S1133FA0B0E809F0BB0B802DBF01FF2793585F4F8A
S1133FB02AF09E3F510568F08DC0D7C05F3FECF3F7
S1133FC0983EDCF3869577956795B795F7959F5F4F
S1133FD0C9F7880F911D9695879597F90895E1E0A3
S1133FE0660F771F881FBB1F621773078407BA0702
S1133FF020F0621B730B840BBA0BEE1F88F7E0955D
S1134000089598D088F09F5790F0B92F9927B75109
S1134010A0F0D1F0660F771F881F991F1AF0BA9588
S1134020C9F712C0B13081F09FD0B1E008959CC0AF
S1134030672F782F8827B85F39F0B93FCCF386957E
S113404077956795B395D9F73EF4909580957095DB
S113405061957F4F8F4F9F4F0895E89409C097FB58
S11340603EF490958095709561957F4F8F4F9F4F4B
S11340709923A9F0F92F96E9BB279395F69587958F
S113408077956795B795F111F8CFFAF4BB0F11F452
S113409060FF1BC06F5F7F4F8F4F9F4F16C08823F9
S11340A011F096E911C0772321F09EE8872F762F2F
S11340B005C0662371F096E8862F70E060E02AF070
S11340C09A95660F771F881FDAF7880F969587955C
S11340D097F9089597F99F6780E870E060E0089584
S11340E09FEF80EC089500240A941616170618060C
S11340F00906089500240A941216130614060506E8
S11341000895092E0394000C11F4882352F0BB0F78
S113411040F4BF2B11F460FF04C06F5F7F4F8F4FDB
S11341209F4F089557FD9058440F551F59F05F3F16
S113413071F04795880F97FB991F61F09F3F79F0C5
S113414087950895121613061406551FF2CF469547
S1134150F1DF08C0161617061806991FF1CF8695C9
S11341607105610508940895E894BB2766277727AD
S1134170CB0197F908950BD0C4CFB5DF28F0BADF8F
S113418018F0952309F0A6CFABCF1124EECFCADFE8
S1134190A0F3959FD1F3950F50E0551F629FF00156
S11341A0729FBB27F00DB11D639FAA27F00DB11DAF
S11341B0AA1F649F6627B00DA11D661F829F222738
S11341C0B00DA11D621F739FB00DA11D621F839FBF
S11341D0A00D611D221F749F3327A00D611D231F95
S11341E0849F600D211D822F762F6A2F11249F57E3
S11341F050408AF0E1F088234AF0EE0FFF1FBB1F06
S1134200661F771F881F91505040A9F79E3F5105A4
S113421070F060CFAACF5F3FECF3983EDCF3869555
S113422077956795B795F795E7959F5FC1F7FE2B4F
S1134230880F911D9695879597F90895991B79E0B4
S113424004C0991F961708F0961B881F7A95C9F722
S113425080950895AA1BBB1B51E107C0AA1FBB1F71
S1134260A617B70710F0A61BB70B881F991F5A95FE
S1134270A9F780959095BC01CD01089597FB072E71
S113428016F4009406D077FD08D0E4DF07FC05D0CF
S11342903EF4909581959F4F0895709561957F4F59
S11342A00895A1E21A2EAA1BBB1BFD010DC0AA1F73
S11342B0BB1FEE1FFF1FA217B307E407F50720F08B
S11342C0A21BB30BE40BF50B661F771F881F991F06
S11342D01A9469F760957095809590959B01AC014F
S11342E0BD01CF010895EE0FFF1F0024001C0BBE7B
S11342F00790F691E02D0994A29FB001B39FC001ED
S1134300A39F700D811D1124911DB29F700D811DFD
S11343101124911D0895F0DFA59F900DB49F900D79
S1134320A49F800D911D112408950F931F93CF9383
S1134330DF938230910510F482E090E0E0918F09E0
S1134340F091900920E030E0A0E0B0E0309719F15E
S1134350408151810281138148175907C8F084179D
S1134360950769F4109731F012960C9312971396EF
S11343701C9327C000938F091093900922C0211524
S1134380310519F04217530718F49A01BD01EF01E2
S1134390DF01F801DBCF21153105F9F0281B390BBA
S11343A02430310580F48A819B816115710521F0E7
S11343B0FB019383828304C09093900980938F09B7
S11343C0FE01329644C0FE01E20FF31F81939193E4
S11343D022503109398328833AC020918D093091C4
S11343E08E09232B41F42091020130910301309373
S11343F08E0920938D09209100013091010121152E
S1134400310541F42DB73EB74091040150910501A7
S1134410241B350BE0918D09F0918E09E217F30707
S1134420A0F42E1B3F0B2817390778F0AC014E5F20
S11344305F4F2417350748F04E0F5F1F50938E09C6
S113444040938D098193919302C0E0E0F0E0CF01A5
S1134450DF91CF911F910F910895CF93DF93009730
S113446009F481C0FC01329713821282A0918F0952
S1134470B0919009109781F420813181820F931FAC
S113448020918D0930918E092817390751F5F09341
S11344908E09E0938D0967C0ED0120E030E0CE176E
S11344A0DF0740F44A815B819E0141155105F1F01B
S11344B0EA01F5CFD383C28340815181840F951FD4
S11344C0C817D90759F488819981840F951F0296DA
S11344D0918380838A819B81938382832115310513
S11344E029F4F0939009E0938F093DC0E901FB831F
S11344F0EA8349915991C40FD51FEC17FD0761F464
S113450080819181840F951F0296E90199838883A4
S1134510828193819B838A83E0E0F0E012968D91FF
S11345209C911397009719F0FD01DC01F7CF8D9151
S11345309C9111979D012E5F3F4F820F931F2091F5
S11345408D0930918E092817390769F4309729F4B9
S11345501092900910928F0902C013821282B093B4
S11345608E09A0938D09DF91CF9108958F929F9228
S1134570AF92BF92CF92DF92EF92FF92CF93DF93ED
S1134580EC01688179818A819B81611571058105BE
S1134590910521F464E279ED8BE597E02DE133EFA9
S11345A041E050E08BD349015A019B01AC01A7EAD9
S11345B0B1E4B1DE6B017C01ACEEB4EFA501940172
S11345C09BD3DC01CB018C0D9D1DAE1DBF1DB7FF20
S11345D003C00197A109B04888839983AA83BB8348
S11345E09F77DF91CF91FF90EF90DF90CF90BF90B6
S11345F0AF909F908F900895B9CF86E091E0B6CFA9
S1134600A0E0B0E08093060190930701A093080115
S1134610B0930901089581E090E0F89471C3FB011F
S1134620DC0104C08D910190801921F44150504067
S1134630C8F7881B990B0895FB01DC0102C00190A7
S11346400D9241505040D8F70895DC0101C06D939C
S113465041505040E0F70895BB274A3031F4992384
S113466022F4BDE2909581959F4F01C0BB27FB01C9
S11346705527AA27880F991FAA1FA41710F0A41B57
S113468083955051B9F7A05DAA3308F0A95DA193B1
S1134690009779F7B111B1931192CB014BC20F93EB
S11346A01F93CF93DF93CDB7DEB72E970FB6F89451
S11346B0DEBF0FBECDBF8C01FA0186E08C831A8366
S11346C0098377FF02C060E070E8CB0101979E8305
S11346D08D83A901BF01CE01019619D04D815E8160
S11346E057FD0AC02F813885421753070CF49A01ED
S11346F0F801E20FF31F10822E960FB6F894DEBF76
S11347000FBECDBFDF91CF911F910F9108952F92CE
S11347103F924F925F926F927F928F929F92AF924D
S1134720BF92CF92DF92EF92FF920F931F93CF939A
S1134730DF93CDB7DEB72B970FB6F894DEBF0FBE6D
S1134740CDBF6C017B018A01FC0117821682838133
S113475081FFBFC1CE0101963C01F6019381F701AF
S113476093FD859193FF81917F01882309F4ADC165
S1134770853239F493FD859193FF81917F018532D0
S113478021F4B60190E0E6D1E8CF912C212C312C14
S1134790FFE1F315D8F08B3279F038F4803279F0F8
S11347A08332A1F4232D20611DC08D3261F080334A
S11347B069F4232D216016C0832D8260382EE32DE9
S11347C0E4603E2E2AC0F32DF8601DC037FC2DC0D6
S11347D020ED280F2A3040F08E32B9F436FC75C132
S11347E0232D2064322E19C036FE06C08AE0989E1E
S11347F0200D1124922E11C0EAE02E9E200D1124CA
S1134800222EF32DF0623F2E08C08C3621F4832D26
S11348108068382E02C0883641F4F70193FD8591F3
S113482093FF81917F018111B3CF982F9F7D955480
S1134830933028F40C5F1F4F9FE399830DC0833698
S113484031F0833771F0833509F055C020C0F80189
S1134850808189830E5F1F4F88248394912C530198
S113486012C02801F2E04F0E511CF801A080B18063
S113487036FE03C0692D70E002C06FEF7FEFC50103
S11348804ED14C018201F32DFF773F2E15C0280134
S113489022E0420E511CF801A080B18036FE03C014
S11348A0692D70E002C06FEF7FEFC5012DD14C017F
S11348B0F32DF0683F2E820133FC19C0822D90E065
S11348C088169906A0F4B60180E290E043D12A94B8
S11348D0F5CFF50137FC859137FE81915F01B60173
S11348E090E038D121102A9421E0821A9108811491
S11348F0910479F7E1C0843611F0893639F5F8016D
S113490037FE07C060817181828193810C5F1F4FE4
S113491008C060817181072E000C880B990B0E5F13
S11349201F4FF32DFF763F2E97FF09C0909580957A
S1134930709561957F4F8F4F9F4FF0683F2E2AE00F
S113494030E0A30143D1882E861844C0853731F462
S1134950232D2F7EB22E2AE030E025C0932D997F9F
S1134960B92E8F36C1F018F4883579F0AEC080378F
S113497019F0883721F0A9C0E92FE061BE2EB4FEFA
S11349800DC0FB2DF460BF2E09C034FE0AC0292FD0
S11349902660B22E06C028E030E005C020E130E0F9
S11349A002C020E132E0F801B7FE07C060817181E6
S11349B0828193810C5F1F4F06C06081718180E00A
S11349C090E00E5F1F4FA30101D1882E8618FB2DA6
S11349D0FF773F2E36FE0DC0232D2E7FA22E891485
S11349E058F434FE0BC032FC09C0832D8E7EA82EF1
S11349F005C0B82CA32C03C0B82C01C0B92CA4FE4C
S1134A000FC0FE01E80DF11D8081803321F49A2D41
S1134A10997EA92E09C0A2FE06C0B394B39404C023
S1134A208A2D867809F0B394A3FC10C0A0FE06C0BA
S1134A30B21480F4280C922C9B180DC0B21458F4B4
S1134A40B60180E290E086D0B394F8CFB21418F4A3
S1134A502B1802C0982C212CA4FE0FC0B60180E3B1
S1134A6090E078D0A2FE16C0A1FC03C088E790E0D5
S1134A7002C088E590E0B6010CC08A2D867851F01A
S1134A80A1FE02C08BE201C080E2A7FC8DE2B60168
S1134A9090E060D0891430F4B60180E390E05AD0FD
S1134AA09A94F8CF8A94F301E80DF11D8081B60140
S1134AB090E050D08110F6CF222009F44ECEB601FA
S1134AC080E290E047D02A94F7CFF601868197815F
S1134AD002C08FEF9FEF2B960FB6F894DEBF0FBE88
S1134AE0CDBFDF91CF911F910F91FF90EF90DF9099
S1134AF0CF90BF90AF909F908F907F906F905F907A
S1134B004F903F902F900895FC01059061507040A4
S1134B100110D8F7809590958E0F9F1F0895FC0182
S1134B206150704001900110D8F7809590958E0FD8
S1134B309F1F0895DC01FC01672F71917723E1F732
S1134B40329704C07C916D9370836291AE17BF0756
S1134B50C8F308950F931F93CF93DF93FB01238131
S1134B6021FD03C08FEF9FEF2CC022FF16C04681AA
S1134B705781248135814217530744F4A081B181C0
S1134B809D012F5F3F4F318320838C932681378192
S1134B902F5F3F4F3783268314C08B01EC01FB0149
S1134BA00084F185E02D0995892BE1F6D80116964C
S1134BB08D919C911797019617969C938E931697B7
S1134BC0CE01DF91CF911F910F910895FA01AA2789
S1134BD0283051F1203181F1E8946F936E7F6E5F3C
S1134BE07F4F8F4F9F4FAF4FB1E03ED0B4E03CD0EA
S1134BF0670F781F891F9A1FA11D680F791F8A1FCD
S1134C00911DA11D6A0F711D811D911DA11D20D033
S1134C1009F468943F912AE0269F11243019305DED
S1134C203193DEF6CF010895462F4770405D4193DE
S1134C30B3E00FD0C9F7F6CF462F4F70405D4A332B
S1134C4018F0495D31FD4052419302D0A9F7EACFF3
S1134C50B4E0A6959795879577956795BA95C9F722
S1134C6000976105710508959B01AC010A2E069415
S1134C705795479537952795BA95C9F7620F731FCE
S1134C80841F951FA01D0895F999FECF92BD81BD83
S1134C90F89A992780B50895262FF999FECF92BDE9
S1134CA081BDF89A019700B4021639F01FBA20BDED
S1134CB00FB6F894FA9AF99A0FBE0895052E97FB49
S1134CC016F400940FD057FD05D0EBDA07FC02D0A0
S1134CD046F408C050954095309521953F4F4F4F6D
S1134CE05F4F089590958095709561957F4F8F4F94
S1134CF09F4F0895B7FF0FCB0EDB821B930B0895D4
S1074D00F894FFCF51
S1134D0400009109200001000000020302000000D9
S1134D14004D5DE7654F2D1AD2E7F765741CF9C79A
S1134D24B90700B30D507E0D000000000000000020
S1134D34000000000000000000000000000000006B
S1134D4400000000000000000070B3D57ED004A56C
S1134D5470000000000000000000050C07020110B0
S1134D6410040303010101020E0003010400000006
S1134D74000000004E04010100010001005B040274
S1134D840100010003007304030100030001009106
S1134D940404010003000300A70405030001000147
S1134DA400BC0406030001000300D4040703000349
S1134DB4000100E90408030003000300FB04537426
S1134DC4656C6C6520646572205661726961626CFD
S1134DD4656E206265726563686E656E004B656915
S1134DE46E65204170706C69636174696F6E7320C1
S1134DF472656769737472696572740D0A004B6530
S1134E04696E6520776569746572652041707020E8
S1134E14676566756E64656E20210D0A0021204560
S1134E244550524F4D20616C6C65732067656C6FFF
S1134E34657363687420210D0A0041707020526503
S1134E4467697374697265727420646965206D6935
S1134E547420616C74657220756562657265696E2F
S1134E647374696D6D740D0A0041707020697374F4
S1134E74206E696368742064696520676C6569637E
S1134E8468652064696520616E2064696573657270
S1134E94205374656C6C6520696D20537065696377
S1134EA468657220657277617274657420777572AF
S1134EB464652E0D0A004E6575652041707020529C
S1134EC4656769737469726572740D0A0054455395
S1134ED454005061636B657420776972642076654D
S1134EE472776F7266656E005061636B65743A2005
S1134EF4004E776B534B65793A2000417070534BE5
S1134F0465793A2000446576696365416464723A5C
S1134F1420007374617274205258322E2E2E0D0A9E
S1134F240074696D656F75740025735B25692F259D
S1134F34695D007374617274205258312E2E2E0DE3
S1134F440A004170705F4E6F6E636500526573743E
S1134F546F72656400466F72636552654A6F696E69
S1134F64004E6577206D656D6F7279206465746594
S1134F74637465642E2E2E00536B6970206D656D09
S1134F846F7279206C6F61642E2E2E0D0A005265A7
S1134F9473746F726520636F6E6669672E2E2E0DAF
S1134FA40A0052464D20696E697400446F696E6745
S1134FB4204F5441412E2E2E0D0A005B6465762049
S1134FC46E6F6E63655D3A002573202564004F544B
S1134FD4414120646F6E652E2E2E0D0A5265626F58
S1134FE46F74696E672E2E2E0D0A00646F776E6CD3
S1134FF4696E6B207265636569766564210D0A00C8
S11350045561727420696E697400656570726F6DA0
S113501420696E69740054657374207061796C6FCF
S113502461640073656E64696E67207061796C6F86
S113503461642E2E2E005B737069206572726F7228
S11350445D3A0025732025732028256429005350D4
S1135054495F4E4F5F4552524F52005350495F458A
S113506452525F4255464645525F4F564552464C4E
S11350744F57005350495F4552525F425546464587
S1135084525F444154415F4F564552575249544527
S1135094005350495F4552525F444154415F4F5657
S11350A44552464C4F57005350495F4552525F494D
S11350B44E56414C49445F504F5254005350495F3B
S11350C44552525F57524954455F434F4C4C4953E0
S11350D4494F4E005350495F4552525F464C555315
S11350E4485F4641494C4544005350495F45525238
S11350F45F524543565F42555359005350495F45E7
S113510452525F4E4F545F444546494E4544000055
S9030000FC
